:1000000009C00EC00DC00CC00BC00AC009C008C09A
:1000100007C006C011241FBECFE9CDBF08D095C0D0
:10002000EFCF369A3699FECF85B190E0089587B329
:10003000836087BB88E188BB389A3D9A3E98A29A34
:1000400086B1836886B90EEE12E0E12CF12C0F2EFA
:10005000FAE08F2EF02DA12CB12C0F2EFAE0CF2E2E
:10006000D12CF02D66246394712C0F2EF8EE4F2EB8
:10007000F02D0F2EF3E05F2EF02D8BE291E0019733
:10008000F1F700C00000382CCA2DDB2DCADFC80FE5
:10009000D91F3A94D9F7CE01B60143D0CB01683CC1
:1000A000710508F0962C8F3B910508F4972CE1140C
:1000B000F10421F021E0E21AF10830C0B39B2CC01A
:1000C00026B307C021E0921204C0C19A03C0EA2CF3
:1000D000FB2CC1980F3E22E0120710F00A2D1B2DB9
:1000E0000F5F1F4F8F3B9105A8F0CB01880F991F21
:1000F000880F991F680F791FCB01880F991F880FF0
:10010000991F680F791F675A72410617170710F475
:10011000C09AB3CFC098B1CFE42CF52CB49BD7CF05
:10012000D1CFAA1BBB1B51E107C0AA1FBB1FA6173B
:10013000B70710F0A61BB70B881F991F5A95A9F790
:0E01400080959095BC01CD010895F894FFCFF5
:00000001FF
